{
  "_format": "hh-sol-artifact-1",
  "contractName": "Voting",
  "sourceName": "contracts/Voting.sol",
  "abi": [
    {
      "inputs": [
        {
          "internalType": "string[]",
          "name": "_candidateNames",
          "type": "string[]"
        },
        {
          "internalType": "uint256",
          "name": "_durationInMinutes",
          "type": "uint256"
        }
      ],
      "stateMutability": "nonpayable",
      "type": "constructor"
    },
    {
      "anonymous": false,
      "inputs": [
        {
          "indexed": false,
          "internalType": "string",
          "name": "name",
          "type": "string"
        }
      ],
      "name": "CandidateAdded",
      "type": "event"
    },
    {
      "anonymous": false,
      "inputs": [
        {
          "indexed": false,
          "internalType": "address",
          "name": "voter",
          "type": "address"
        },
        {
          "indexed": false,
          "internalType": "uint256",
          "name": "candidateIndex",
          "type": "uint256"
        }
      ],
      "name": "Voted",
      "type": "event"
    },
    {
      "inputs": [
        {
          "internalType": "string",
          "name": "_name",
          "type": "string"
        }
      ],
      "name": "addCandidate",
      "outputs": [],
      "stateMutability": "nonpayable",
      "type": "function"
    },
    {
      "inputs": [
        {
          "internalType": "uint256",
          "name": "",
          "type": "uint256"
        }
      ],
      "name": "candidates",
      "outputs": [
        {
          "internalType": "string",
          "name": "name",
          "type": "string"
        },
        {
          "internalType": "uint256",
          "name": "voteCount",
          "type": "uint256"
        }
      ],
      "stateMutability": "view",
      "type": "function"
    },
    {
      "inputs": [],
      "name": "getAllVotesOfCandidates",
      "outputs": [
        {
          "components": [
            {
              "internalType": "string",
              "name": "name",
              "type": "string"
            },
            {
              "internalType": "uint256",
              "name": "voteCount",
              "type": "uint256"
            }
          ],
          "internalType": "struct Voting.Candidate[]",
          "name": "",
          "type": "tuple[]"
        }
      ],
      "stateMutability": "view",
      "type": "function"
    },
    {
      "inputs": [],
      "name": "getRemainingTime",
      "outputs": [
        {
          "internalType": "uint256",
          "name": "",
          "type": "uint256"
        }
      ],
      "stateMutability": "view",
      "type": "function"
    },
    {
      "inputs": [],
      "name": "getVotingStatus",
      "outputs": [
        {
          "internalType": "bool",
          "name": "",
          "type": "bool"
        }
      ],
      "stateMutability": "view",
      "type": "function"
    },
    {
      "inputs": [],
      "name": "owner",
      "outputs": [
        {
          "internalType": "address",
          "name": "",
          "type": "address"
        }
      ],
      "stateMutability": "view",
      "type": "function"
    },
    {
      "inputs": [
        {
          "internalType": "uint256",
          "name": "_candidateIndex",
          "type": "uint256"
        }
      ],
      "name": "vote",
      "outputs": [],
      "stateMutability": "nonpayable",
      "type": "function"
    },
    {
      "inputs": [
        {
          "internalType": "address",
          "name": "",
          "type": "address"
        }
      ],
      "name": "voters",
      "outputs": [
        {
          "internalType": "bool",
          "name": "",
          "type": "bool"
        }
      ],
      "stateMutability": "view",
      "type": "function"
    },
    {
      "inputs": [],
      "name": "votingEnd",
      "outputs": [
        {
          "internalType": "uint256",
          "name": "",
          "type": "uint256"
        }
      ],
      "stateMutability": "view",
      "type": "function"
    },
    {
      "inputs": [],
      "name": "votingStart",
      "outputs": [
        {
          "internalType": "uint256",
          "name": "",
          "type": "uint256"
        }
      ],
      "stateMutability": "view",
      "type": "function"
    }
  ],
  "bytecode": "0x60806040523480156200001157600080fd5b50604051620016bd380380620016bd833981810160405281019062000037919062000345565b60005b82518110156200010757600060405180604001604052808584815181106200008b577f4e487b7100000000000000000000000000000000000000000000000000000000600052603260045260246000fd5b60200260200101518152602001600081525090806001815401808255809150506001900390600052602060002090600202016000909190919091506000820151816000019080519060200190620000e49291906200017a565b506020820151816001015550508080620000fe9062000569565b9150506200003a565b5033600160006101000a81548173ffffffffffffffffffffffffffffffffffffffff021916908373ffffffffffffffffffffffffffffffffffffffff16021790555042600381905550603c816200015f919062000492565b426200016c919062000435565b60048190555050506200065e565b828054620001889062000533565b90600052602060002090601f016020900481019282620001ac5760008555620001f8565b82601f10620001c757805160ff1916838001178555620001f8565b82800160010185558215620001f8579182015b82811115620001f7578251825591602001919060010190620001da565b5b5090506200020791906200020b565b5090565b5b80821115620002265760008160009055506001016200020c565b5090565b6000620002416200023b84620003d3565b6200039f565b9050808382526020820190508260005b858110156200028557815185016200026a888262000301565b84526020840193506020830192505060018101905062000251565b5050509392505050565b6000620002a6620002a08462000402565b6200039f565b905082815260208101848484011115620002bf57600080fd5b620002cc848285620004fd565b509392505050565b600082601f830112620002e657600080fd5b8151620002f88482602086016200022a565b91505092915050565b600082601f8301126200031357600080fd5b8151620003258482602086016200028f565b91505092915050565b6000815190506200033f8162000644565b92915050565b600080604083850312156200035957600080fd5b600083015167ffffffffffffffff8111156200037457600080fd5b6200038285828601620002d4565b925050602062000395858286016200032e565b9150509250929050565b6000604051905081810181811067ffffffffffffffff82111715620003c957620003c862000615565b5b8060405250919050565b600067ffffffffffffffff821115620003f157620003f062000615565b5b602082029050602081019050919050565b600067ffffffffffffffff82111562000420576200041f62000615565b5b601f19601f8301169050602081019050919050565b60006200044282620004f3565b91506200044f83620004f3565b9250827fffffffffffffffffffffffffffffffffffffffffffffffffffffffffffffffff03821115620004875762000486620005b7565b5b828201905092915050565b60006200049f82620004f3565b9150620004ac83620004f3565b9250817fffffffffffffffffffffffffffffffffffffffffffffffffffffffffffffffff0483118215151615620004e857620004e7620005b7565b5b828202905092915050565b6000819050919050565b60005b838110156200051d57808201518184015260208101905062000500565b838111156200052d576000848401525b50505050565b600060028204905060018216806200054c57607f821691505b60208210811415620005635762000562620005e6565b5b50919050565b60006200057682620004f3565b91507fffffffffffffffffffffffffffffffffffffffffffffffffffffffffffffffff821415620005ac57620005ab620005b7565b5b600182019050919050565b7f4e487b7100000000000000000000000000000000000000000000000000000000600052601160045260246000fd5b7f4e487b7100000000000000000000000000000000000000000000000000000000600052602260045260246000fd5b7f4e487b7100000000000000000000000000000000000000000000000000000000600052604160045260246000fd5b6200064f81620004f3565b81146200065b57600080fd5b50565b61104f806200066e6000396000f3fe608060405234801561001057600080fd5b506004361061009e5760003560e01c806385a386351161006657806385a38635146101485780638da5cb5b1461016657806390a9ab9014610184578063a3ec138d146101a2578063efb98bcf146101d25761009e565b80630121b93f146100a3578063101158af146100bf5780633477ee2e146100dd578063462e91ec1461010e578063581c281c1461012a575b600080fd5b6100bd60048036038101906100b8919061091c565b6101f0565b005b6100c76103b9565b6040516100d49190610d32565b60405180910390f35b6100f760048036038101906100f2919061091c565b6103bf565b604051610105929190610c82565b60405180910390f35b610128600480360381019061012391906108db565b61047b565b005b6101326105af565b60405161013f9190610c45565b60405180910390f35b6101506105c9565b60405161015d9190610d32565b60405180910390f35b61016e6105cf565b60405161017b9190610bdf565b60405180910390f35b61018c6105f5565b6040516101999190610c23565b60405180910390f35b6101bc60048036038101906101b791906108b2565b6106f0565b6040516101c99190610c45565b60405180910390f35b6101da610710565b6040516101e79190610d32565b60405180910390f35b600260003373ffffffffffffffffffffffffffffffffffffffff1673ffffffffffffffffffffffffffffffffffffffff16815260200190815260200160002060009054906101000a900460ff161561027d576040517f08c379a000000000000000000000000000000000000000000000000000000000815260040161027490610cb2565b60405180910390fd5b60008054905081106102c4576040517f08c379a00000000000000000000000000000000000000000000000000000000081526004016102bb90610cd2565b60405180910390fd5b600081815481106102fe577f4e487b7100000000000000000000000000000000000000000000000000000000600052603260045260246000fd5b9060005260206000209060020201600101600081548092919061032090610f04565b91905055506001600260003373ffffffffffffffffffffffffffffffffffffffff1673ffffffffffffffffffffffffffffffffffffffff16815260200190815260200160002060006101000a81548160ff0219169083151502179055507f4d99b957a2bc29a30ebd96a7be8e68fe50a3c701db28a91436490b7d53870ca433826040516103ae929190610bfa565b60405180910390a150565b60035481565b600081815481106103cf57600080fd5b90600052602060002090600202016000915090508060000180546103f290610ed2565b80601f016020809104026020016040519081016040528092919081815260200182805461041e90610ed2565b801561046b5780601f106104405761010080835404028352916020019161046b565b820191906000526020600020905b81548152906001019060200180831161044e57829003601f168201915b5050505050908060010154905082565b600160009054906101000a900473ffffffffffffffffffffffffffffffffffffffff1673ffffffffffffffffffffffffffffffffffffffff163373ffffffffffffffffffffffffffffffffffffffff161461050b576040517f08c379a000000000000000000000000000000000000000000000000000000000815260040161050290610cf2565b60405180910390fd5b6000604051806040016040528083815260200160008152509080600181540180825580915050600190039060005260206000209060020201600090919091909150600082015181600001908051906020019061056892919061077d565b506020820151816001015550507ff29562dad1599aea0ebb142466120aab326d5efa8f839df82a9c064bf78e8938816040516105a49190610c60565b60405180910390a150565b600060035442101580156105c4575060045442105b905090565b60045481565b600160009054906101000a900473ffffffffffffffffffffffffffffffffffffffff1681565b60606000805480602002602001604051908101604052809291908181526020016000905b828210156106e7578382906000526020600020906002020160405180604001604052908160008201805461064c90610ed2565b80601f016020809104026020016040519081016040528092919081815260200182805461067890610ed2565b80156106c55780601f1061069a576101008083540402835291602001916106c5565b820191906000526020600020905b8154815290600101906020018083116106a857829003601f168201915b5050505050815260200160018201548152505081526020019060010190610619565b50505050905090565b60026020528060005260406000206000915054906101000a900460ff1681565b6000600354421015610757576040517f08c379a000000000000000000000000000000000000000000000000000000000815260040161074e90610d12565b60405180910390fd5b6004544210610769576000905061077a565b426004546107779190610e14565b90505b90565b82805461078990610ed2565b90600052602060002090601f0160209004810192826107ab57600085556107f2565b82601f106107c457805160ff19168380011785556107f2565b828001600101855582156107f2579182015b828111156107f15782518255916020019190600101906107d6565b5b5090506107ff9190610803565b5090565b5b8082111561081c576000816000905550600101610804565b5090565b600061083361082e84610d7e565b610d4d565b90508281526020810184848401111561084b57600080fd5b610856848285610e90565b509392505050565b60008135905061086d81610feb565b92915050565b600082601f83011261088457600080fd5b8135610894848260208601610820565b91505092915050565b6000813590506108ac81611002565b92915050565b6000602082840312156108c457600080fd5b60006108d28482850161085e565b91505092915050565b6000602082840312156108ed57600080fd5b600082013567ffffffffffffffff81111561090757600080fd5b61091384828501610873565b91505092915050565b60006020828403121561092e57600080fd5b600061093c8482850161089d565b91505092915050565b60006109518383610b84565b905092915050565b61096281610e48565b82525050565b600061097382610dbe565b61097d8185610de1565b93508360208202850161098f85610dae565b8060005b858110156109cb57848403895281516109ac8582610945565b94506109b783610dd4565b925060208a01995050600181019050610993565b50829750879550505050505092915050565b6109e681610e5a565b82525050565b60006109f782610dc9565b610a018185610df2565b9350610a11818560208601610e9f565b610a1a81610fda565b840191505092915050565b6000610a3082610dc9565b610a3a8185610e03565b9350610a4a818560208601610e9f565b610a5381610fda565b840191505092915050565b6000610a6b601783610e03565b91507f596f75206861766520616c726561647920766f7465642e0000000000000000006000830152602082019050919050565b6000610aab601883610e03565b91507f496e76616c69642063616e64696461746520696e6465782e00000000000000006000830152602082019050919050565b6000610aeb602783610e03565b91507f4f6e6c7920746865206f776e65722063616e20706572666f726d20746869732060008301527f616374696f6e2e000000000000000000000000000000000000000000000000006020830152604082019050919050565b6000610b51601b83610e03565b91507f566f74696e6720686173206e6f742073746172746564207965742e00000000006000830152602082019050919050565b60006040830160008301518482036000860152610ba182826109ec565b9150506020830151610bb66020860182610bc1565b508091505092915050565b610bca81610e86565b82525050565b610bd981610e86565b82525050565b6000602082019050610bf46000830184610959565b92915050565b6000604082019050610c0f6000830185610959565b610c1c6020830184610bd0565b9392505050565b60006020820190508181036000830152610c3d8184610968565b905092915050565b6000602082019050610c5a60008301846109dd565b92915050565b60006020820190508181036000830152610c7a8184610a25565b905092915050565b60006040820190508181036000830152610c9c8185610a25565b9050610cab6020830184610bd0565b9392505050565b60006020820190508181036000830152610ccb81610a5e565b9050919050565b60006020820190508181036000830152610ceb81610a9e565b9050919050565b60006020820190508181036000830152610d0b81610ade565b9050919050565b60006020820190508181036000830152610d2b81610b44565b9050919050565b6000602082019050610d476000830184610bd0565b92915050565b6000604051905081810181811067ffffffffffffffff82111715610d7457610d73610fab565b5b8060405250919050565b600067ffffffffffffffff821115610d9957610d98610fab565b5b601f19601f8301169050602081019050919050565b6000819050602082019050919050565b600081519050919050565b600081519050919050565b6000602082019050919050565b600082825260208201905092915050565b600082825260208201905092915050565b600082825260208201905092915050565b6000610e1f82610e86565b9150610e2a83610e86565b925082821015610e3d57610e3c610f4d565b5b828203905092915050565b6000610e5382610e66565b9050919050565b60008115159050919050565b600073ffffffffffffffffffffffffffffffffffffffff82169050919050565b6000819050919050565b82818337600083830152505050565b60005b83811015610ebd578082015181840152602081019050610ea2565b83811115610ecc576000848401525b50505050565b60006002820490506001821680610eea57607f821691505b60208210811415610efe57610efd610f7c565b5b50919050565b6000610f0f82610e86565b91507fffffffffffffffffffffffffffffffffffffffffffffffffffffffffffffffff821415610f4257610f41610f4d565b5b600182019050919050565b7f4e487b7100000000000000000000000000000000000000000000000000000000600052601160045260246000fd5b7f4e487b7100000000000000000000000000000000000000000000000000000000600052602260045260246000fd5b7f4e487b7100000000000000000000000000000000000000000000000000000000600052604160045260246000fd5b6000601f19601f8301169050919050565b610ff481610e48565b8114610fff57600080fd5b50565b61100b81610e86565b811461101657600080fd5b5056fea264697066735822122050e51c5a6d770d10af4defd32b5617a056d60f22ab0a4393c262bb9b63f9b6cb64736f6c63430008000033",
  "linkReferences": {},
  "deployedLinkReferences": {}
}